{
  "_format": "hh-sol-artifact-1",
  "contractName": "Logs",
  "sourceName": "contracts/Logs.sol",
  "abi": [
    {
      "inputs": [],
      "stateMutability": "nonpayable",
      "type": "constructor"
    },
    {
      "anonymous": false,
      "inputs": [
        {
          "indexed": false,
          "internalType": "bytes32",
          "name": "x_cor",
          "type": "bytes32"
        },
        {
          "indexed": false,
          "internalType": "bytes32",
          "name": "y_cor",
          "type": "bytes32"
        },
        {
          "indexed": false,
          "internalType": "bytes2",
          "name": "sharedSecret",
          "type": "bytes2"
        }
      ],
      "name": "publicKeys",
      "type": "event"
    },
    {
      "inputs": [
        {
          "internalType": "bytes32",
          "name": "x_cor",
          "type": "bytes32"
        },
        {
          "internalType": "bytes32",
          "name": "y_cor",
          "type": "bytes32"
        },
        {
          "internalType": "bytes2",
          "name": "sharedSecret",
          "type": "bytes2"
        },
        {
          "internalType": "address payable",
          "name": "target",
          "type": "address"
        }
      ],
      "name": "Transfer",
      "outputs": [
        {
          "internalType": "uint256",
          "name": "",
          "type": "uint256"
        }
      ],
      "stateMutability": "payable",
      "type": "function"
    },
    {
      "inputs": [
        {
          "internalType": "bytes32",
          "name": "x_cor",
          "type": "bytes32"
        },
        {
          "internalType": "bytes32",
          "name": "y_cor",
          "type": "bytes32"
        },
        {
          "internalType": "bytes2",
          "name": "sharedSecret",
          "type": "bytes2"
        },
        {
          "internalType": "address",
          "name": "token",
          "type": "address"
        },
        {
          "internalType": "address",
          "name": "target",
          "type": "address"
        },
        {
          "internalType": "uint256",
          "name": "amount",
          "type": "uint256"
        }
      ],
      "name": "TransferERC20",
      "outputs": [],
      "stateMutability": "payable",
      "type": "function"
    },
    {
      "inputs": [
        {
          "internalType": "bytes32",
          "name": "x_cor",
          "type": "bytes32"
        },
        {
          "internalType": "bytes32",
          "name": "y_cor",
          "type": "bytes32"
        },
        {
          "internalType": "bytes2",
          "name": "sharedSecret",
          "type": "bytes2"
        },
        {
          "internalType": "address",
          "name": "ERC721Token",
          "type": "address"
        },
        {
          "internalType": "address",
          "name": "target",
          "type": "address"
        },
        {
          "internalType": "uint256",
          "name": "tokenId",
          "type": "uint256"
        }
      ],
      "name": "TransferERC721",
      "outputs": [],
      "stateMutability": "nonpayable",
      "type": "function"
    },
    {
      "inputs": [],
      "name": "contractName",
      "outputs": [
        {
          "internalType": "string",
          "name": "",
          "type": "string"
        }
      ],
      "stateMutability": "view",
      "type": "function"
    },
    {
      "inputs": [],
      "name": "getTotalVolume",
      "outputs": [
        {
          "internalType": "uint256",
          "name": "",
          "type": "uint256"
        }
      ],
      "stateMutability": "view",
      "type": "function"
    },
    {
      "inputs": [],
      "name": "gettotalStealthAddresses",
      "outputs": [
        {
          "internalType": "uint256",
          "name": "",
          "type": "uint256"
        }
      ],
      "stateMutability": "view",
      "type": "function"
    },
    {
      "inputs": [
        {
          "internalType": "uint256",
          "name": "",
          "type": "uint256"
        }
      ],
      "name": "logs",
      "outputs": [
        {
          "internalType": "bytes32",
          "name": "x_cor",
          "type": "bytes32"
        },
        {
          "internalType": "bytes32",
          "name": "y_cor",
          "type": "bytes32"
        },
        {
          "internalType": "bytes2",
          "name": "sharedSecret",
          "type": "bytes2"
        }
      ],
      "stateMutability": "view",
      "type": "function"
    },
    {
      "inputs": [],
      "name": "pubKeysLen",
      "outputs": [
        {
          "internalType": "uint256",
          "name": "",
          "type": "uint256"
        }
      ],
      "stateMutability": "view",
      "type": "function"
    },
    {
      "inputs": [
        {
          "internalType": "uint256",
          "name": "initVal",
          "type": "uint256"
        }
      ],
      "name": "retrievePubKeys",
      "outputs": [
        {
          "components": [
            {
              "internalType": "bytes32",
              "name": "x_cor",
              "type": "bytes32"
            },
            {
              "internalType": "bytes32",
              "name": "y_cor",
              "type": "bytes32"
            },
            {
              "internalType": "bytes2",
              "name": "sharedSecret",
              "type": "bytes2"
            }
          ],
          "internalType": "struct Logs.publickeys[10]",
          "name": "",
          "type": "tuple[10]"
        }
      ],
      "stateMutability": "view",
      "type": "function"
    }
  ],
  "bytecode": "0x60806040523480156200001157600080fd5b5033600260006101000a81548173ffffffffffffffffffffffffffffffffffffffff021916908373ffffffffffffffffffffffffffffffffffffffff1602179055506040518060400160405280600881526020017f466f727573207631000000000000000000000000000000000000000000000000815250600490816200009991906200031a565b5062000401565b600081519050919050565b7f4e487b7100000000000000000000000000000000000000000000000000000000600052604160045260246000fd5b7f4e487b7100000000000000000000000000000000000000000000000000000000600052602260045260246000fd5b600060028204905060018216806200012257607f821691505b602082108103620001385762000137620000da565b5b50919050565b60008190508160005260206000209050919050565b60006020601f8301049050919050565b600082821b905092915050565b600060088302620001a27fffffffffffffffffffffffffffffffffffffffffffffffffffffffffffffffff8262000163565b620001ae868362000163565b95508019841693508086168417925050509392505050565b6000819050919050565b6000819050919050565b6000620001fb620001f5620001ef84620001c6565b620001d0565b620001c6565b9050919050565b6000819050919050565b6200021783620001da565b6200022f620002268262000202565b84845462000170565b825550505050565b600090565b6200024662000237565b620002538184846200020c565b505050565b5b818110156200027b576200026f6000826200023c565b60018101905062000259565b5050565b601f821115620002ca5762000294816200013e565b6200029f8462000153565b81016020851015620002af578190505b620002c7620002be8562000153565b83018262000258565b50505b505050565b600082821c905092915050565b6000620002ef60001984600802620002cf565b1980831691505092915050565b60006200030a8383620002dc565b9150826002028217905092915050565b6200032582620000a0565b67ffffffffffffffff811115620003415762000340620000ab565b5b6200034d825462000109565b6200035a8282856200027f565b600060209050601f8311600181146200039257600084156200037d578287015190505b620003898582620002fc565b865550620003f9565b601f198416620003a2866200013e565b60005b82811015620003cc57848901518255600182019150602085019450602081019050620003a5565b86831015620003ec5784890151620003e8601f891682620002dc565b8355505b6001600288020188555050505b505050505050565b61185880620004116000396000f3fe6080604052600436106100865760003560e01c80636fd41614116100595780636fd416141461013a57806375d0c0dc14610163578063dbe98ac01461018e578063e79899bd146101be578063f85598ca146101fd57610086565b8063092ab7331461008b5780630b9d98e9146100b65780632c993787146100e15780636bf2fc67146100fd575b600080fd5b34801561009757600080fd5b506100a0610228565b6040516100ad9190610d12565b60405180910390f35b3480156100c257600080fd5b506100cb610232565b6040516100d89190610d12565b60405180910390f35b6100fb60048036038101906100f69190610e4a565b61023b565b005b34801561010957600080fd5b50610124600480360381019061011f9190610ed7565b610541565b6040516101319190611000565b60405180910390f35b34801561014657600080fd5b50610161600480360381019061015c9190610e4a565b610689565b005b34801561016f57600080fd5b5061017861098d565b60405161018591906110ac565b60405180910390f35b6101a860048036038101906101a3919061110c565b610a1b565b6040516101b59190610d12565b60405180910390f35b3480156101ca57600080fd5b506101e560048036038101906101e09190610ed7565b610b66565b6040516101f493929190611191565b60405180910390f35b34801561020957600080fd5b50610212610bad565b60405161021f9190610d12565b60405180910390f35b6000600154905090565b60008054905090565b82600073ffffffffffffffffffffffffffffffffffffffff168173ffffffffffffffffffffffffffffffffffffffff16036102ab576040517f08c379a00000000000000000000000000000000000000000000000000000000081526004016102a290611214565b60405180910390fd5b600082116102ee576040517f08c379a00000000000000000000000000000000000000000000000000000000081526004016102e590611280565b60405180910390fd5b818473ffffffffffffffffffffffffffffffffffffffff166370a08231336040518263ffffffff1660e01b815260040161032891906112af565b602060405180830381865afa158015610345573d6000803e3d6000fd5b505050506040513d601f19601f8201168201806040525081019061036991906112df565b10156103aa576040517f08c379a00000000000000000000000000000000000000000000000000000000081526004016103a190611358565b60405180910390fd5b818473ffffffffffffffffffffffffffffffffffffffff1663dd62ed3e33306040518363ffffffff1660e01b81526004016103e6929190611378565b602060405180830381865afa158015610403573d6000803e3d6000fd5b505050506040513d601f19601f8201168201806040525081019061042791906112df565b1015610468576040517f08c379a000000000000000000000000000000000000000000000000000000000815260040161045f906113ed565b60405180910390fd5b610473878787610bba565b8373ffffffffffffffffffffffffffffffffffffffff166323b872dd3385856040518463ffffffff1660e01b81526004016104b09392919061140d565b6020604051808303816000875af11580156104cf573d6000803e3d6000fd5b505050506040513d601f19601f820116820180604052508101906104f3919061147c565b506104fd82610c5e565b7f64289c53ad92b20ea7f4c36a067bd28f7814d818f7d73894d1bde7d151d31b2287878760405161053093929190611191565b60405180910390a150505050505050565b610549610c83565b610551610c83565b6000600380549050841015610566578361056d565b6003805490505b90506000600a821161058057600061058e565b600a8261058d91906114d8565b5b905060008290505b8181111561067d5760036001826105ad91906114d8565b815481106105be576105bd61150c565b5b906000526020600020906003020160405180606001604052908160008201548152602001600182015481526020016002820160009054906101000a900460f01b7dffffffffffffffffffffffffffffffffffffffffffffffffffffffffffff19167dffffffffffffffffffffffffffffffffffffffffffffffffffffffffffff19168152505084828561065191906114d8565b600a81106106625761066161150c565b5b602002018190525080806106759061153b565b915050610596565b50829350505050919050565b600073ffffffffffffffffffffffffffffffffffffffff168373ffffffffffffffffffffffffffffffffffffffff16036106f8576040517f08c379a00000000000000000000000000000000000000000000000000000000081526004016106ef906115b0565b60405180910390fd5b3373ffffffffffffffffffffffffffffffffffffffff168373ffffffffffffffffffffffffffffffffffffffff16636352211e836040518263ffffffff1660e01b81526004016107489190610d12565b602060405180830381865afa158015610765573d6000803e3d6000fd5b505050506040513d601f19601f8201168201806040525081019061078991906115e5565b73ffffffffffffffffffffffffffffffffffffffff16146107df576040517f08c379a00000000000000000000000000000000000000000000000000000000081526004016107d690611684565b60405180910390fd5b3073ffffffffffffffffffffffffffffffffffffffff168373ffffffffffffffffffffffffffffffffffffffff1663081812fc836040518263ffffffff1660e01b815260040161082f9190610d12565b602060405180830381865afa15801561084c573d6000803e3d6000fd5b505050506040513d601f19601f8201168201806040525081019061087091906115e5565b73ffffffffffffffffffffffffffffffffffffffff16146108c6576040517f08c379a00000000000000000000000000000000000000000000000000000000081526004016108bd906116f0565b60405180910390fd5b6108d1868686610bba565b8273ffffffffffffffffffffffffffffffffffffffff166323b872dd3384846040518463ffffffff1660e01b815260040161090e9392919061140d565b600060405180830381600087803b15801561092857600080fd5b505af115801561093c573d6000803e3d6000fd5b5050505061094a6001610c5e565b7f64289c53ad92b20ea7f4c36a067bd28f7814d818f7d73894d1bde7d151d31b2286868660405161097d93929190611191565b60405180910390a1505050505050565b6004805461099a9061173f565b80601f01602080910402602001604051908101604052809291908181526020018280546109c69061173f565b8015610a135780601f106109e857610100808354040283529160200191610a13565b820191906000526020600020905b8154815290600101906020018083116109f657829003601f168201915b505050505081565b6000803411610a5f576040517f08c379a0000000000000000000000000000000000000000000000000000000008152600401610a5690611280565b60405180910390fd5b610a6a858585610bba565b60008273ffffffffffffffffffffffffffffffffffffffff1634604051610a90906117a1565b60006040518083038185875af1925050503d8060008114610acd576040519150601f19603f3d011682016040523d82523d6000602084013e610ad2565b606091505b5050905080610b16576040517f08c379a0000000000000000000000000000000000000000000000000000000008152600401610b0d90611802565b60405180910390fd5b610b1f34610c5e565b7f64289c53ad92b20ea7f4c36a067bd28f7814d818f7d73894d1bde7d151d31b22868686604051610b5293929190611191565b60405180910390a134915050949350505050565b60038181548110610b7657600080fd5b90600052602060002090600302016000915090508060000154908060010154908060020160009054906101000a900460f01b905083565b6000600380549050905090565b60036040518060600160405280858152602001848152602001837dffffffffffffffffffffffffffffffffffffffffffffffffffffffffffff19168152509080600181540180825580915050600190039060005260206000209060030201600090919091909150600082015181600001556020820151816001015560408201518160020160006101000a81548161ffff021916908360f01c02179055505050505050565b6000806000549150600154905082820191506001810190508160005580600155505050565b604051806101400160405280600a905b610c9b610cb1565b815260200190600190039081610c935790505090565b6040518060600160405280600080191681526020016000801916815260200160007dffffffffffffffffffffffffffffffffffffffffffffffffffffffffffff191681525090565b6000819050919050565b610d0c81610cf9565b82525050565b6000602082019050610d276000830184610d03565b92915050565b600080fd5b6000819050919050565b610d4581610d32565b8114610d5057600080fd5b50565b600081359050610d6281610d3c565b92915050565b60007fffff00000000000000000000000000000000000000000000000000000000000082169050919050565b610d9d81610d68565b8114610da857600080fd5b50565b600081359050610dba81610d94565b92915050565b600073ffffffffffffffffffffffffffffffffffffffff82169050919050565b6000610deb82610dc0565b9050919050565b610dfb81610de0565b8114610e0657600080fd5b50565b600081359050610e1881610df2565b92915050565b610e2781610cf9565b8114610e3257600080fd5b50565b600081359050610e4481610e1e565b92915050565b60008060008060008060c08789031215610e6757610e66610d2d565b5b6000610e7589828a01610d53565b9650506020610e8689828a01610d53565b9550506040610e9789828a01610dab565b9450506060610ea889828a01610e09565b9350506080610eb989828a01610e09565b92505060a0610eca89828a01610e35565b9150509295509295509295565b600060208284031215610eed57610eec610d2d565b5b6000610efb84828501610e35565b91505092915050565b6000600a9050919050565b600081905092915050565b6000819050919050565b610f2d81610d32565b82525050565b610f3c81610d68565b82525050565b606082016000820151610f586000850182610f24565b506020820151610f6b6020850182610f24565b506040820151610f7e6040850182610f33565b50505050565b6000610f908383610f42565b60608301905092915050565b6000602082019050919050565b610fb281610f04565b610fbc8184610f0f565b9250610fc782610f1a565b8060005b83811015610ff8578151610fdf8782610f84565b9650610fea83610f9c565b925050600181019050610fcb565b505050505050565b60006103c0820190506110166000830184610fa9565b92915050565b600081519050919050565b600082825260208201905092915050565b60005b8381101561105657808201518184015260208101905061103b565b60008484015250505050565b6000601f19601f8301169050919050565b600061107e8261101c565b6110888185611027565b9350611098818560208601611038565b6110a181611062565b840191505092915050565b600060208201905081810360008301526110c68184611073565b905092915050565b60006110d982610dc0565b9050919050565b6110e9816110ce565b81146110f457600080fd5b50565b600081359050611106816110e0565b92915050565b6000806000806080858703121561112657611125610d2d565b5b600061113487828801610d53565b945050602061114587828801610d53565b935050604061115687828801610dab565b9250506060611167878288016110f7565b91505092959194509250565b61117c81610d32565b82525050565b61118b81610d68565b82525050565b60006060820190506111a66000830186611173565b6111b36020830185611173565b6111c06040830184611182565b949350505050565b7f546f6b656e206164647265737320726571756972656400000000000000000000600082015250565b60006111fe601683611027565b9150611209826111c8565b602082019050919050565b6000602082019050818103600083015261122d816111f1565b9050919050565b7f416d6f756e742073686f756c64206265206d6f7265207468616e203000000000600082015250565b600061126a601c83611027565b915061127582611234565b602082019050919050565b600060208201905081810360008301526112998161125d565b9050919050565b6112a981610de0565b82525050565b60006020820190506112c460008301846112a0565b92915050565b6000815190506112d981610e1e565b92915050565b6000602082840312156112f5576112f4610d2d565b5b6000611303848285016112ca565b91505092915050565b7f4e6f7420656e6f75676820746f6b656e73000000000000000000000000000000600082015250565b6000611342601183611027565b915061134d8261130c565b602082019050919050565b6000602082019050818103600083015261137181611335565b9050919050565b600060408201905061138d60008301856112a0565b61139a60208301846112a0565b9392505050565b7f4e6f7420656e6f75676820616c6c6f77616e6365000000000000000000000000600082015250565b60006113d7601483611027565b91506113e2826113a1565b602082019050919050565b60006020820190508181036000830152611406816113ca565b9050919050565b600060608201905061142260008301866112a0565b61142f60208301856112a0565b61143c6040830184610d03565b949350505050565b60008115159050919050565b61145981611444565b811461146457600080fd5b50565b60008151905061147681611450565b92915050565b60006020828403121561149257611491610d2d565b5b60006114a084828501611467565b91505092915050565b7f4e487b7100000000000000000000000000000000000000000000000000000000600052601160045260246000fd5b60006114e382610cf9565b91506114ee83610cf9565b9250828203905081811115611506576115056114a9565b5b92915050565b7f4e487b7100000000000000000000000000000000000000000000000000000000600052603260045260246000fd5b600061154682610cf9565b915060008203611559576115586114a9565b5b600182039050919050565b7f20456e7465722074686520746f6b656e20616464726573730000000000000000600082015250565b600061159a601883611027565b91506115a582611564565b602082019050919050565b600060208201905081810360008301526115c98161158d565b9050919050565b6000815190506115df81610df2565b92915050565b6000602082840312156115fb576115fa610d2d565b5b6000611609848285016115d0565b91505092915050565b7f596f7520617265206e6f7420746865206f776e6572206f66207468697320746f60008201527f6b656e4964000000000000000000000000000000000000000000000000000000602082015250565b600061166e602583611027565b915061167982611612565b604082019050919050565b6000602082019050818103600083015261169d81611661565b9050919050565b7f4e6f7420617070726f7665640000000000000000000000000000000000000000600082015250565b60006116da600c83611027565b91506116e5826116a4565b602082019050919050565b60006020820190508181036000830152611709816116cd565b9050919050565b7f4e487b7100000000000000000000000000000000000000000000000000000000600052602260045260246000fd5b6000600282049050600182168061175757607f821691505b60208210810361176a57611769611710565b5b50919050565b600081905092915050565b50565b600061178b600083611770565b91506117968261177b565b600082019050919050565b60006117ac8261177e565b9150819050919050565b7f5472616e7366657220746f20726563697069656e74206661696c656400000000600082015250565b60006117ec601c83611027565b91506117f7826117b6565b602082019050919050565b6000602082019050818103600083015261181b816117df565b905091905056fea2646970667358221220db4177ecc27117c708b424f72c69acaa6ed9297421ff2963ae6d79819265fc5164736f6c63430008100033",
  "linkReferences": {},
  "deployedLinkReferences": {}
}