{
  "_format": "hh-sol-artifact-1",
  "contractName": "SafeMath",
  "sourceName": "contracts/SafeMath.sol",
  "abi": [
    {
      "inputs": [
        {
          "internalType": "uint256",
          "name": "a",
          "type": "uint256"
        },
        {
          "internalType": "uint256",
          "name": "b",
          "type": "uint256"
        }
      ],
      "name": "add",
      "outputs": [
        {
          "internalType": "uint256",
          "name": "",
          "type": "uint256"
        }
      ],
      "stateMutability": "pure",
      "type": "function"
    },
    {
      "inputs": [
        {
          "internalType": "uint256",
          "name": "a",
          "type": "uint256"
        },
        {
          "internalType": "uint256",
          "name": "b",
          "type": "uint256"
        }
      ],
      "name": "div",
      "outputs": [
        {
          "internalType": "uint256",
          "name": "",
          "type": "uint256"
        }
      ],
      "stateMutability": "pure",
      "type": "function"
    },
    {
      "inputs": [
        {
          "internalType": "uint256",
          "name": "x",
          "type": "uint256"
        },
        {
          "internalType": "uint256",
          "name": "y",
          "type": "uint256"
        }
      ],
      "name": "min",
      "outputs": [
        {
          "internalType": "uint256",
          "name": "",
          "type": "uint256"
        }
      ],
      "stateMutability": "pure",
      "type": "function"
    },
    {
      "inputs": [
        {
          "internalType": "uint256",
          "name": "a",
          "type": "uint256"
        },
        {
          "internalType": "uint256",
          "name": "b",
          "type": "uint256"
        }
      ],
      "name": "mul",
      "outputs": [
        {
          "internalType": "uint256",
          "name": "",
          "type": "uint256"
        }
      ],
      "stateMutability": "pure",
      "type": "function"
    },
    {
      "inputs": [
        {
          "internalType": "uint256",
          "name": "a",
          "type": "uint256"
        },
        {
          "internalType": "uint256",
          "name": "b",
          "type": "uint256"
        }
      ],
      "name": "sub",
      "outputs": [
        {
          "internalType": "uint256",
          "name": "",
          "type": "uint256"
        }
      ],
      "stateMutability": "pure",
      "type": "function"
    }
  ],
  "bytecode": "0x610480610053600b82828239805160001a607314610046577f4e487b7100000000000000000000000000000000000000000000000000000000600052600060045260246000fd5b30600052607381538281f3fe73000000000000000000000000000000000000000030146080604052600436106100615760003560e01c8063771602f7146100665780637ae2b5c714610096578063a391c15b146100c6578063b67d77c5146100f6578063c8a4ac9c14610126575b600080fd5b610080600480360381019061007b9190610260565b610156565b60405161008d91906102af565b60405180910390f35b6100b060048036038101906100ab9190610260565b610182565b6040516100bd91906102af565b60405180910390f35b6100e060048036038101906100db9190610260565b61019b565b6040516100ed91906102af565b60405180910390f35b610110600480360381019061010b9190610260565b6101b6565b60405161011d91906102af565b60405180910390f35b610140600480360381019061013b9190610260565b6101dd565b60405161014d91906102af565b60405180910390f35b600080828461016591906102f9565b9050838110156101785761017761032d565b5b8091505092915050565b60008183106101915781610193565b825b905092915050565b60008082846101aa919061038b565b90508091505092915050565b6000828211156101c9576101c861032d565b5b81836101d591906103bc565b905092915050565b60008083036101ef576000905061021f565b600082846101fd91906103f0565b905082848261020c919061038b565b1461021a5761021961032d565b5b809150505b92915050565b600080fd5b6000819050919050565b61023d8161022a565b811461024857600080fd5b50565b60008135905061025a81610234565b92915050565b6000806040838503121561027757610276610225565b5b60006102858582860161024b565b92505060206102968582860161024b565b9150509250929050565b6102a98161022a565b82525050565b60006020820190506102c460008301846102a0565b92915050565b7f4e487b7100000000000000000000000000000000000000000000000000000000600052601160045260246000fd5b60006103048261022a565b915061030f8361022a565b9250828201905080821115610327576103266102ca565b5b92915050565b7f4e487b7100000000000000000000000000000000000000000000000000000000600052600160045260246000fd5b7f4e487b7100000000000000000000000000000000000000000000000000000000600052601260045260246000fd5b60006103968261022a565b91506103a18361022a565b9250826103b1576103b061035c565b5b828204905092915050565b60006103c78261022a565b91506103d28361022a565b92508282039050818111156103ea576103e96102ca565b5b92915050565b60006103fb8261022a565b91506104068361022a565b9250817fffffffffffffffffffffffffffffffffffffffffffffffffffffffffffffffff048311821515161561043f5761043e6102ca565b5b82820290509291505056fea26469706673582212202633769d46f594a9490634ea935bda425422df3e3f4305def9b68e790d2ca84b64736f6c63430008100033",
  "linkReferences": {},
  "deployedLinkReferences": {}
}